:020000040800F2
:100000000050002021020008270200082B020008EF
:100010009D020008A1020008E9020008000000009B
:100020000000000000000000000000003103000894
:100030003503000800000000390300080112000821
:100040004D0300084D0300084D0300084D03000850
:100050004D0300084D0300084D0300084D03000840
:100060004D0300084D0300084D0300084D03000830
:100070004D0300084D0300084D0300084D03000820
:100080004D0300084D0300084D0300084D03000810
:100090004D0300084D0300084D0300084D03000800
:1000A0004D0300084D0300084D0300084D030008F0
:1000B0004D0300084D0300084D0300084D030008E0
:1000C0004D0300084D0300084D0300084D030008D0
:1000D0004D0300084D0300084D0300084D030008C0
:1000E0004D0300084D0300084D0300080000000008
:1000F0000000000000000000000000000000000000
:1001000000000000000000005FF808F100B583B0B7
:1001100000F0AAF9304B314A1360314A1360314B79
:10012000314A32498B4204D21168196004330432D7
:10013000F7E72A4B1A682E4B9A4200D0FEE7284B6D
:100140001A682C4B9A42F9D1234B2B4A13602B4A45
:1001500013602B4B02E000221A600433294A9342B9
:10016000F9D3254B1B6813B9244B1B6803B1FEE779
:1001700000F086F9694601A800F022F9224C234BD1
:10018000E41AA4100025AC4214DC214C214BE41AE3
:10019000A4100025AC4213DC0099019801F0E2F8AC
:1001A00005461D4C1D4BE41AA410002C0EDC2846FD
:1001B00000F0E2F8154B53F8253098470135E2E797
:1001C000144B53F8253098470135E3E7013C134BB6
:1001D00053F824309847E8E7BABADECA0000002096
:1001E0008C00002000000020B020000890000020BB
:1001F000785634123254769890000020480300203C
:10020000900000204C0300207803000878030008C9
:1002100078030008780300087803000878030008D2
:1002200008B5FFF773FF00BEFEE71EF0040F0CBF1A
:10023000EFF30880EFF309807146414A10472DE93A
:10024000F04182B004468846124B5E6B9F6B9D6AFC
:100250001B6B13F0020F03D00E4BDB6A002B0CDB81
:100260000D4800F0B5F8CDF800803B4632462946EF
:10027000204600F009F900BEFEE74BF6AB6100F046
:100280007DF90028ECD0034B4FF00042DA6202B057
:10029000BDE8F08100ED00E0241F000800BEFEE78D
:1002A0001EF0040F0CBFEFF30880EFF309807146D6
:1002B000244A10472DE9F04182B004468846084B95
:1002C0005E6B9F6B9D6A074800F082F8CDF8008056
:1002D0003B4632462946204600F0D6F800BEFEE7EF
:1002E00000ED00E0341F00081EF0040F0CBFEFF318
:1002F0000880EFF309807146134A10472DE9F04159
:1003000082B004468846084B5E6B9F6B9D6A074827
:1003100000F05EF8CDF800803B4632462946204684
:1003200000F0B2F800BEFEE700ED00E0401F00085C
:1003300000BEFEE700BEFEE700BEFEE7704700001D
:100340003F020008B5020008FD02000800BEFEE7FB
:10035000B02000080000002090000020B02000081D
:100360000000000000000000900000204C0300206E
:08037000000000000000000085
:10037800FEE7000008B503460C4A12685AB10B4A5A
:100388001068033323F003030344094A934206D851
:10039800064A136008BD054A06491160EFE701F0F7
:1003A800DDF80C2303604FF0FF30F3E794000020E2
:1003B800004C00204C03002001230360014B0B601C
:1003C800704700BF040000200FB400B583B004AB31
:1003D80053F8042B01938021064801F013F90028F3
:1003E80003DD0146034800F037F803B05DF804EB7D
:1003F80004B070479C0000202DE9F04385B0044606
:100408000F4643560BB10E461EE0042528462146EA
:10041800ABBE0446384605B0BDE8F08314F9011BAD
:1004280004AA1A4402F8101C0133AB42F6D304AAFA
:100438001344002203F8102C4FF00408E946404604
:100448004946ABBE8046761B002EE3D03546102EBB
:1004580028BF10250023E8E708B5FFF7CDFF08BD42
:1004680008B500F0FDF8024A024B9A6008BD00BFCB
:100478000000000800ED00E008B500F019F908BD1B
:10048800F8B504460D4617461E462748FFF79CFF59
:1004980021682648FFF798FF61682548FFF794FF11
:1004A800A1682448FFF790FFE1682348FFF78CFF15
:1004B80021692248FFF788FF61692148FFF784FF17
:1004C800A1692048FFF780FFE1691F48FFF77CFF1B
:1004D8001E48FFF779FF29461D48FFF775FF1D4C99
:1004E800E16A1D48FFF770FF216B1C48FFF76CFF9E
:1004F800E16B1B48FFF768FF15F0800F0AD115F470
:10050800004F0CD11748FFF75FFF06991648FFF711
:100518005BFFF8BD39461548FFF756FFEFE7314650
:100528001348FFF751FFEDE7081E0008181E0008E2
:10053800281E0008381E0008481E0008581E00081B
:10054800681E0008781E0008881E0008981E00080B
:10055800A41E000800ED00E0B41E0008C41E000838
:10056800D41E0008041F00080C1F0008E41E000821
:10057800F41E000883691A888A4201D00020704757
:100588000268033A012A03D80233836101207047C5
:100598000020704782B00023019300932C4A13680F
:1005A80043F4803313602A4B1B6803F40033009331
:1005B800019B01330193009B1BB9019BB3F5A06F0D
:1005C800F1D1234B1B6813F4003F06D0012300939D
:1005D800009B012B04D002B0704700230093F7E77B
:1005E8001C4B1A6842F010021A601A6822F00302C3
:1005F8001A601A6842F002021A60A3F580535A681A
:100608005A605A685A605A6842F480625A605A6856
:1006180022F47C125A605A6842F4E8125A601A6846
:1006280042F080721A600A4B1B6813F0007FFAD000
:10063800074B5A6822F003025A605A6842F00202D5
:100648005A60034B5B6803F00C03082BF9D1C2E72F
:10065800001002400020024008B5FFF79BFF08BDCC
:1006680008B5104B1A6842F001021A6059680E4A20
:100678000A405A601A6822F0847222F480321A60A2
:100688001A6822F480221A605A6822F4FE025A601C
:100698004FF41F029A60FFF7DFFF044B4FF0006230
:1006A8009A6008BD001002400000FFF800ED00E06D
:1006B8001F4B5B6803F00C03042B15D0082B17D0D5
:1006C8001BB11C4B1C4A1A6002E01A4B1A4A1A60EA
:1006D800174B5B68C3F30313184AD35CDAB21549A6
:1006E8000B68D3400B607047124B134A1A60EFE750
:1006F8000F4A53685268C3F38343023312F4803FAE
:100708000AD00B4A526812F4003F0BD00C4A02FB85
:1007180003F3084A1360DBE7094A02FB03F3054ABF
:100728001360D5E7044A02FB03F3024A1360CFE7DC
:10073800001002401C00002000127A000C0000206B
:1007480000093D0080B500AF0C4B1B78002B04D18D
:100758000B4800F0CDF900F0ADF9084B1B78002BE1
:1007680002D1084800F0C4F9044B1B78002B02D1D1
:10077800054800F0BDF900BF80BD00BF1C01002086
:10078800501F0008581F0008601F000880B59CB063
:1007980000AF7860124B1B78002B1DD107F10C03BA
:1007A80064220021184600F0DFFE07F10C030D4912
:1007B800184600F0E1FE07F10C037968184600F0CE
:1007C800DBFE07F10C030849184600F0D5FE07F1D7
:1007D8000C03184600F08CF900BF7037BD4680BD89
:1007E8001C010020841F0008981F000880B58AB0EB
:1007F80000AF7860134B1B78002B1FD107F108035B
:100808001E220021184600F0AFFE00F053F907F150
:1008180008030D49184600F0AFFE07F10803796890
:10082800184600F0A9FE07F108030849184600F029
:10083800A3FE07F10803184600F05AF900BF28374D
:10084800BD4680BD1C010020A41F0008B01F000881
:1008580080B5B4B000AF7860144B1B78002B21D161
:1008680007F10803C8220021184600F07DFE00F0B9
:1008780021F907F108030E49184600F07DFE07F13B
:1008880008037968184600F077FE07F1080309495C
:10089800184600F071FE00F00DF907F1080318463C
:1008A80000F026F900BFD037BD4680BD1C010020EE
:1008B800B41F0008B01F000880B586B000AF78608C
:1008C800484B1B78002B40F089800023FB730023E2
:1008D800FB750023BB7500237B7500233B75002344
:1008E800FB740023BB7400F0E5F8012000F002FD62
:1008F8000346FB733C4B1B78DBB219463B4AFB7B38
:100908005354FB7B2B2B07D1FB7D002B04D1364B9B
:100918001B78BB740123FB75FB7B3A2B27D1FB7D2E
:10092800012B24D1304B1B783B750223FB75002328
:100938007B75BB7C05337B7411E07B7D1A46920086
:1009480013445B007B757B7C284AD35CDBB2303B6D
:10095800DAB27B7D13447B757B7C01337B747A7CB4
:100968003B7D9A42E9D33A7D7B7D1344FB741E4B51
:100978001B78DBB2DA1FFB7C9A4209DDFB7D022B78
:1009880006D1FB7C0633194AD35CDBB2442B0ED06C
:10099800FB7BFF2B07D0144B1B78DBB20133DAB299
:1009A800114B1A70A1E7BB7D0133BB759DE700BFF2
:1009B8003B7D01333B740DE03A7C397C3B7DCB1A9F
:1009C800013B79680B4409498A5CD2B21A703B7CB6
:1009D80001333B743A7CFB7C9A42EDD900BF18374F
:1009E800BD4680BD1C010020440300207C0200207D
:1009F80080B584B000AFF860B9607A603B60084B9E
:100A08001B78002B08D1B868FFF7F0FE7868FFF76D
:100A18001FFF3868FFF750FF00BF1037BD4680BD85
:100A28001C01002080B582B000AF00F043F800231D
:100A3800FB7100233B6020E0012000F05BFC0346D3
:100A4800FB71194B1B78DBB21946184AFB795354D2
:100A5800FB79FF2B07D0144B1B78DBB20133DAB2DA
:100A6800114B1A7002E03B6801333B600E4B1B7858
:100A7800DBB28C2B01D900F01DF8FB794B2B02D08F
:100A88003B68632BD8D93B68642B04D1084B0122FF
:100A98001A70002303E0064B00221A70012318463F
:100AA8000837BD4680BD00BF440300207C020020FB
:100AB8001C01002080B483B000AF0023FB710A4BF7
:100AC80000221A700023FB7106E0FB79074A002117
:100AD800D154FB790133FB71FB79952BF5D900BF14
:100AE8000C37BD4680BC7047440300207C020020C0
:100AF80080B584B000AF78600023FB730023BB731C
:100B08000BE004227968012000F0C2FBFFF78AFF9E
:100B18000346FB73BB7B0133BB73FB7B002BF0D01D
:100B280000BF1037BD4680BD80B582B000AF04223B
:100B38000B49012000F0ACFB00237B6002E07B68DE
:100B480001337B607B68074A9342F8DD064B00223D
:100B58001A70FFF7F7FD00BF0837BD4680BD00BF1C
:100B6800BC1F0008404B4C001C01002080B582B01F
:100B780000AF0C23FB7106E0FB79184600F00CF877
:100B8800FB790133FB7197F90730002BF4DA00BFCA
:100B98000837BD4680BD000080B483B000AF03466F
:100BA800FB7100BF1E4BDB6803F00103012BF9D07A
:100BB8001B4B1B69DB0903F00103012B05D1184B03
:100BC800184A5A60164B184A5A60154B1B69144A42
:100BD80043F002031361FB799B02114A03F100639E
:100BE80053610F4B1B690E4A43F04003136100BF6A
:100BF8000B4BDB6803F00103012BF9D0084BDB68D2
:100C0800074A43F02003D360054B1B69044A23F0CD
:100C18000203136100BF0C37BD4680BC704700BF9C
:100C28000020024023016745AB89EFCD80B487B02F
:100C380000AFF860B9601346FB7100BF224BDB6858
:100C480003F00103012BF9D01F4B1B69DB0903F0EB
:100C58000103012B05D11C4B1C4A5A601A4B1C4A34
:100C68005A600023FB7525E0174B1B69164A43F0B1
:100C780001031361FB7D5B00BA681A44FB681288A4
:100C88001A80FB680233FB6000BF0F4BDB6803F080
:100C98000103012BF9D00C4BDB680B4A43F020030E
:100CA800D360094B1B69084A23F001031361FB7DDC
:100CB8000133FB75FA7DFB799A42D5D300BF1C3707
:100CC800BD4680BC704700BF002002402301674535
:100CD800AB89EFCD80B483B000AF0346FB710B4600
:100CE800BB7113467B71FB79012B3DD0022B73D06E
:100CF800002B00D0ADE0BB79072B17D8574B1B68EA
:100D0800BA7992000F2101FA02F2D2431146534AEE
:100D18000B401360514B1B687979BA79920001FA3C
:100D280002F211464D4A0B4313608DE0BB790F2B3D
:100D380000F28A804A4B1B68BA79083A92000F2160
:100D480001FA02F2D2431146454A0B401360444B64
:100D58001B687979BA79083A920001FA02F21146C9
:100D68003F4A0B4313606FE0BB79072B17D83D4B05
:100D78001B68BA7992000F2101FA02F2D243114698
:100D8800384A0B401360374B1B687979BA7992005F
:100D980001FA02F21146334A0B43136056E0BB795D
:100DA8000F2B53D8304B1B68BA79083A92000F21A1
:100DB80001FA02F2D24311462B4A0B4013602A4B28
:100DC8001B687979BA79083A920001FA02F2114659
:100DD800254A0B43136039E0BB79072B17D8234BFF
:100DE8001B68BA7992000F2101FA02F2D243114628
:100DF8001E4A0B4013601D4B1B687979BA79920023
:100E080001FA02F21146194A0B43136020E0BB793C
:100E18000F2B1DD8164B1B68BA79083A92000F2180
:100E280001FA02F2D2431146114A0B401360104BEB
:100E38001B687979BA79083A920001FA02F21146E8
:100E48000B4A0B43136003E000BF02E000BF00E061
:100E580000BF00BF0C37BD4680BC7047000801408A
:100E680004080140000C0140040C0140001001403E
:100E78000410014080B485B000AF0346FB71FB79D4
:100E88002F2B06D9FB79392B03D8FB79303BFB7321
:100E980002E0FB79373BFB73FB7B18461437BD46F2
:100EA80080BC704780B586B000AF78600023BB7502
:100EB8007B6801331B781846FFF7DCFF03467B7518
:100EC8007B6802331B781846FFF7D4FF03463B754F
:100ED8007B7D1B015AB297F9143013435BB2FB7444
:100EE8007B6803331B781846FFF7C4FF0346BB74BF
:100EF8007B6804331B781846FFF7BCFF03467B74F6
:100F08007B6805331B781846FFF7B4FF03463B742C
:100F18007B6806331B781846FFF7ACFF0346FB7364
:100F2800394B1B681B0C1B04374A1360FA7B364B82
:100F38001B6813433A7C120113437A7C1202134351
:100F4800BA7C12031343304A13600023FB7547E051
:100F5800FB7D9B0009337A6813441B781846FFF71A
:100F680089FF0346BB74FB7D9B000A337A681344F0
:100F78001B781846FFF77EFF03467B74FB7D9B00BA
:100F88000B337A6813441B781846FFF773FF034640
:100F98003B74FB7D9B000C337A6813441B7818461E
:100FA800FFF768FF0346FB73FB7B1B021AB23B7C0F
:100FB8001B031BB213431AB27B7C1BB213431AB236
:100FC800BB7C1B011BB213431AB2BB7D91B20F4A03
:100FD80022F81310BB7D0133BB75FB7D0133FB7514
:100FE800FB7C5B08DBB2FA7D9A42B1D3064B1868EA
:100FF800FB7C5B08DBB21A460449FFF717FE00BF0B
:101008001837BD4680BD00BF200000202001002009
:1010180080B584B000AF78607B6809331B781846C8
:10102800FFF728FF0346FB737B680A331B781846D3
:10103800FFF720FF0346BB737B680B331B7818460A
:10104800FFF718FF03467B737B680C331B78184641
:10105800FFF710FF03463B730C4B1B689BB20B4A10
:101068001360FB7B1A07BB7B1B061A437B7B1B05A4
:101078001A433B7B1B0413431A46044B1B68134358
:10108800024A136000BF1037BD4680BD2000002013
:1010980080B582B000AF78607B6808331B78302B4E
:1010A80002D0342B04D007E07868FFF7FBFE03E09A
:1010B8007868FFF7ADFF00BF00BF0837BD4680BDA9
:1010C80080B400AF044B81221A60044B00221A60DE
:1010D80000BFBD4680BC70470010024004100240AB
:1010E80080B483B000AF03460A46FB711346BB7158
:1010F800BB791F2B28D8FB79012B0FD0022B18D0D6
:10110800002B00D020E0134B1B68BA79012101FAAB
:1011180002F211460F4A0B43136015E00E4B1B6891
:10112800BA79012101FA02F211460B4A0B43136006
:101138000AE00A4B1B68BA79012101FA02F211464A
:10114800064A0B43136000BF00BF0C37BD4680BC86
:10115800704700BF141002401C10024018100240D3
:1011680080B400AF034B00221A6000BFBD4680BCAC
:10117800704700BF10E000E080B483B000AF786033
:1011880039600D4A7B6853600B4B1B680A4A43F071
:1011980001031360094A3B681360094B00221A7067
:1011A800054B1B68044A43F00203136000BF0C3769
:1011B800BD4680BC704700BF10E000E0E801002099
:1011C800EC01002080B400AF0A4B1B68094A23F0E9
:1011D80002031360074B1B68064A23F001031360E0
:1011E800044B00225A60034B00229A6000BFBD46A0
:1011F80080BC704710E000E080B582B000AF124BB1
:101208001B78002B11D1114B1B68104A23F00203E5
:1012180013600E4B1B680D4A23F0010313600B4B40
:1012280000225A60094B00229A60094B1B689847B4
:10123800064B1B681B0CDBB203F00103FB7100BFFC
:101248000837BD4680BD00BFEC01002010E000E07B
:10125800E801002080B483B000AF03463960FB7119
:10126800FB79012B00D00AE0074B42F20C02DA604E
:10127800054A06493B68B1FBF3F3936000BF00BF22
:101288000C37BD4680BC70470038014000127A0018
:1012980080B489B000AF03463960FB711346BB7157
:1012A800FB79012B00D01EE0BB79042B1AD1002357
:1012B800FB6110E0FB693A68134493F900200C4B7A
:1012C8005A6000BF0A4B1B6803F04003002BF9D09B
:1012D800FB690133FB61FB693A68134493F90030F9
:1012E800002BE7D100BF00BF2437BD4680BC704744
:1012F8000038014080B485B000AF0346FB7100237D
:10130800FB60FB79012B0AD100BF084B1B6803F077
:101318002003002BF9D0054B5B685BB200E000238B
:1013280018461437BD4680BC704700BF00380140DE
:1013380080B500AF054B064A1A60064B1B68064A83
:101348001360054B1B68984700BF80BD08ED00E09F
:1013580000300008043000086C02002080B500AF9F
:10136800FFF7AEFE02210220FFF7BAFE0E2102208F
:10137800FFF7B6FE04210020FFF7B2FE032102208A
:10138800FFF7AEFEFFF7ECFE0A2209210020FFF767
:10139800A1FC04220A210020FFF79CFC4FF4E13154
:1013A8000120FFF757FFFFF7BFFB1B48FFF7EEF9D8
:1013B8001A4B1B4A1B491848FFF71AFB00F058F84C
:1013C80019491A48FFF7D8FE1DE0194800F036F809
:1013D800124B9B783A2B16D1FFF7F4FE00F082F8F7
:1013E800144B1B78DBB2012B04D1FFF7BFFB114B69
:1013F80000221A700E48FFF74BFE00F039F80A4930
:101408000A48FFF7B9FE0C4B1B78DBB2002BDCD087
:1014180000BF184680BD00BFC81F0008300200206A
:10142800D81F00080420000839130008404B4C005E
:10143800F0010020240000202D02002080B485B097
:1014480000AF78600023FB730023FB7307E0FB7B8E
:101458007A68134400221A70FB7B0133FB73FB7B11
:101468003B2BF4D900BF1437BD4680BC7047000041
:1014780080B500AF134B1B78002B21D11248FFF722
:10148800DDFF1248FFF782F90F4B114A11490F4847
:10149800FFF7AEFA0DE0FFF747FB0B48FFF7CEFF6B
:1014A8000A48FFF773F9084B0B4A0C490748FFF73E
:1014B8009FFA0B49044800F06EF80346002BEAD067
:1014C80000BF80BD1C01002030020020C81F00089A
:1014D800082000083C200008402000087820000868
:1014E8007C20000880B400AF21E0194B1B78DBB2E8
:1014F8000233184AD35C0D2B06D1154B1B78DBB28F
:101508000233144A0A21D154114B1B78DBB202333F
:101518000F4A1278D2B211460E4AD25C0E4B5A5478
:101528000B4B1B78DBB20133DAB2094B1A70084B4C
:101538001B78DBB21A46084B9B5CDBB20A2BD4D172
:10154800034B00221A7000BFBD4680BC704700BF25
:101558002C02002030020020F0010020014B186806
:10156800704700BF2800002003460244934200D180
:10157800704703F8011BF9E7034610B51A785C1C9D
:101588003AB9013B11F8012B03F8012F002AF9D1D0
:1015980010BD2346F2E710F8012B11F8013B012A90
:1015A80028BF9A42F7D0D01A704730B5141E0546A6
:1015B8009BB0184605DA8B234FF0FF302B601BB029
:1015C80030BD4FF40273ADF80C300CBF234604F164
:1015D800FF33029305934FF6FF7300910491ADF822
:1015E8000E3002461E9B6946284600F073F8431CDD
:1015F800BCBF8B232B60002CE1D00022009B1A700B
:10160800DDE7000007B5009313460A460146034884
:101618000068FFF7CAFF03B05DF804FB280000204C
:101628002DE9F0478E6882469E420C4690469946C0
:1016380037D88A8912F4906F31D002232568096956
:101648006F1A656905EB450595FBF3F509F101038B
:101658003B449D4238BF1D46530530D5294600F00E
:1016680035FB064650B90C234FF0FF30CAF800305E
:10167800A38943F04003A381BDE8F0873A46216976
:1016880000F0B4FAA38923F4906343F08003A381A4
:1016980026613E4426604E466561ED1BA5604E45B9
:1016A80000D94E4632464146206800F0AAFAA3689F
:1016B80000209B1BA36023681E442660DCE72A46A3
:1016C80000F05EFB06460028E2D12169504600F092
:1016D800B1FAC8E72DE9F04F9DB003938B89804696
:1016E8001D060C4616460FD50B696BB9402100F054
:1016F800EDFA2060206128B90C23C8F800304FF0BB
:10170800FF30C7E0402363610023099320238DF84D
:10171800293030234FF0010B8DF82A3037463D46EB
:1017280015F8013B0BB1252B3ED1B7EB060A0BD0C0
:101738005346324621464046FFF772FF013000F01B
:10174800A480099B534409933B78002B00F09D80AB
:1017580000234FF0FF32CDE90523049307938DF85A
:1017680053301A932F46052217F8011B4F4800F0F3
:101778002FFA049BD0B9D90644BF20228DF85320F4
:101788001A0744BF2B228DF853202A782A2A15D00D
:101798002F4600200A25079A394611F8013B303BAD
:1017A800092B4DD9B8B10FE02F46B8E73F4A3D465F
:1017B800801A0BFA00F018430490D3E7039A111D1E
:1017C80012680391002A01DB079204E0524243F0B9
:1017D8000203079204933B782E2B0CD17B782A2B9B
:1017E80033D1039B02371A1D1B680392002BB8BF25
:1017F8004FF0FF3305932E4D03223978284600F029
:10180800E7F938B14023401B03FA00F0049B013785
:10181800034304933978062226487E1C8DF8281045
:1018280000F0D6F9002838D0234B13BB039B0733AD
:1018380023F0070308330393099B4B4409936DE78F
:1018480005FB023201200F46A6E700230A251946A8
:1018580001370593384610F8012B303A092A03D985
:10186800002BC8D00591C6E705FB012101230746D7
:10187800F0E703AB00932246104B04A94046AFF3B0
:101888000080B0F1FF3F8146D6D1A3895B063FF5C2
:1018980036AF09981DB0BDE8F08F03AB0093224620
:1018A800064B04A9404600F081F8EAE77D200008CD
:1018B800832000088720000800000000291600087F
:1018C8002DE9F04791461F468A680B690646934200
:1018D800B8BF1346C9F8003091F843200C46DDF82C
:1018E800208012B10133C9F800302368990642BF3D
:1018F800D9F800300233C9F80030256815F006051C
:1019080007D104F1190AE368D9F800209B1AAB4201
:1019180029DC94F843302268003318BF012392066B
:101928002ED404F1430239463046C047013021D055
:101938002368E56803F00603042B18BF0025D9F8CF
:1019480000204FF0000908BFAD1AA368226908BF3C
:1019580025EAE5759342C4BF9B1AED181A344D4524
:101968001AD1002008E00123524639463046C047C4
:10197800013003D14FF0FF30BDE8F0870135C2E7F1
:101988003020E11881F843005A1C94F8451022448D
:10199800023382F84310C4E7012322463946304611
:1019A800C0470130E6D009F10109D8E72DE9F04335
:1019B80001F1430C0C46097E85B06E291746064690
:1019C80098460C9A00F0B38022D8632936D00AD8FA
:1019D800002900F0B980582900F0838004F14205FD
:1019E80084F8421032E0642901D06929F6D12068D0
:1019F8001368050603F104012AD51B681160002B42
:101A080003DA2D225B4284F843206F480A2239E02A
:101A1800732900F09D8008D86F2920D07029DDD166
:101A2800236843F02003236003E0752917D0782941
:101A3800D4D17823654884F8453055E0136804F11B
:101A48004205191D1B68116084F8423001238CE09F
:101A58001B6810F0400F116018BF1BB2CFE7136866
:101A68002568181D1060280601D51B6802E0680665
:101A7800FBD51B886F2914BF0A220822524800216F
:101A880084F843106568002DA560C0F29580216830
:101A980021F004012160002B3DD1002D40F08E8003
:101AA8006546082A0BD12368DB0708D523696268D5
:101AB8009A42DEBF302305F8013C05F1FF35ACEB57
:101AC80005032361CDF800803B4603AA2146304632
:101AD800FFF7F6FE01304DD14FF0FF3005B0BDE8FD
:101AE800F083394884F84510136821681D1D1B6868
:101AF80015600A060BD5CA0744BF41F020012160D2
:101B08001BB9226822F0200222601022B7E74D0696
:101B180048BF9BB2EFE76546B3FBF2F102FB113316
:101B2800C35C05F8013D0B460029F5D1B9E71368F8
:101B38002568181D6169106028061B6801D51960A1
:101B480002E06A06FBD51980002365462361B9E7E0
:101B58001368191D11601D6862680021284600F08D
:101B680037F808B1401B606063682361002384F87C
:101B78004330A7E723692A4639463046C047013033
:101B8800AAD023689B0713D4E068039B9842B8BF88
:101B98001846A3E701234A4639463046C047013074
:101BA8009AD00135E368039A9B1AAB42F2DCEBE763
:101BB800002504F11909F5E7002BACD1037804F1ED
:101BC800420584F842306CE78E2000089F20000808
:101BD80010B5C9B202449042034601D1002303E084
:101BE8001C7801308C42F6D1184610BD10B5431E42
:101BF8000A44914200D110BD11F8014B03F8014F7E
:101C0800F7E7884210B501EB020307D8421E994254
:101C18000AD011F8014B02F8014FF8E78342F5D9D1
:101C28008118D21AD34200D110BD13F8014D01F822
:101C3800014DF7E738B50546002943D051F8043C73
:101C48000C1F002BB8BFE41800F0D0F81E4A136828
:101C5800104633B9636014602846BDE8384000F088
:101C6800C6B8A3420BD921686218934201BF1A680B
:101C78005B685218226063600460EDE713465A6897
:101C88000AB1A242FAD919685818A0420BD12068A3
:101C98000144581882421960DED110685268014424
:101CA80019605A60D8E702D90C232B60D4E7206862
:101CB80021188A4201BF11685268091821606260C0
:101CC8005C60C9E738BD00BF7002002070B5CD1C4C
:101CD80025F0030508350C2D38BF0C25002D0646C8
:101CE80001DBA94203D90C233360002070BD00F04A
:101CF8007DF8214A1468214691B9204C23681BB904
:101D0800304600F063F820602946304600F05EF85F
:101D1800431C24D10C233046336000F068F8E4E714
:101D28000B685B1B18D40B2B0FD90B60CC18CD504C
:101D3800304600F05CF804F10B00231D20F007008A
:101D4800C31AD3D05A42E250D0E74B688C4216BF30
:101D5800636013600C46EBE70C464968CCE7C41C8B
:101D680024F00304A04205D0211A304600F02EF8D2
:101D78000130CFD02560DBE770020020740200201C
:101D8800F8B5074614460E4621B9BDE8F840114695
:101D9800FFF79CBF22B9FFF74DFF25462846F8BD3F
:101DA80000F026F8A0420FD221463846FFF78EFFF2
:101DB80005460028F2D031462246FFF717FF314684
:101DC8003846FFF737FFE9E73546E7E738B5002338
:101DD800054C054608462360FEF7CCFA431C02D1A1
:101DE800236803B12B6038BD780200207047704724
:101DF80051F8043C181F002BBCBF0B58C018704783
:101E0800537461636B206672616D653A0A00000065
:101E1800205230203D2020253038580A000000008C
:101E2800205231203D2020253038580A000000007B
:101E3800205232203D2020253038580A000000006A
:101E4800205233203D2020253038580A0000000059
:101E580020523132203D20253038580A0000000039
:101E6800204C52203D2020253038580A0000000020
:101E7800205043203D2020253038580A000000001B
:101E880020505352203D20253038580A00000000C9
:101E98004653522F4641523A0A0000002043465307
:101EA80052203D2020253038580A0000204846534B
:101EB80052203D2020253038580A0000204446533F
:101EC80052203D2020253038580A00002041465332
:101ED80052203D2020253038580A0000204D4D461C
:101EE8004152203D20253038580A00002042464102
:101EF80052203D2020253038580A00004D69736370
:101F08000A000000204C522F4558435F5245545553
:101F1800524E3D20253038580A0000005B48617257
:101F2800644661756C745D0A000000005B4275735D
:101F38004661756C745D0A005B557361676546613F
:101F4800756C745D0A00000041540D0A0000000021
:101F5800415445300D0A000041542B43574D4F441E
:101F6800453D310D0A00000041542B43574A41506A
:101F78003D220000222C2200220D0A0041542B434E
:101F8800495053544152543D22544350222C22006C
:101F9800222C313134320D0A0000000041542B4309
:101FA800495053454E443D000D0A00004745542012
:101FB8000000000041542B5253540D0A0000000049
:101FC8003139322E3136382E312E323300000000AE
:101FD800687474703A2F2F3139322E3136382E31D9
:101FE8002E32333A313134322F73746172745F6632
:101FF8006C6173682E706870000000003436000051
:10200800687474703A2F2F3139322E3136382E31A8
:102018002E32333A313134322F73746172745F6601
:102028006C6173682E7068703F636F6E6669673D98
:102038006F6B000035360000687474703A2F2F31CA
:1020480039322E3136382E312E32333A313134325C
:102058002F73746172745F666C6173682E70687038
:102068003F636F6E6669673D6E6F6E6500000000C6
:102078003538000000232D302B2000686C4C00659B
:10208800666745464700303132333435363738399C
:1020980041424344454600303132333435363738CF
:0820A8003961626364656600A2
:1020B0007856341298000020000000000000000054
:1020C00000000000010203040607080900A24A04F8
:1020D0000000000801FFFFFF2C00002000000000AE
:1020E00000000000000000000000000000000000F0
:1020F00000000000000000000000000000000000E0
:1021000000000000000000000000000000000000CF
:1021100000000000000000000000000000000000BF
:1021200000000000000000000000000000000000AF
:10213000000000000000000000000000325476980B
:040000050800010DE1
:00000001FF
